:020000040800F2
:10000000F80600208901000849140008C10F000803
:100010001D1300088F0200086F1800080000000080
:10002000000000000000000000000000751700083C
:10003000D50500080000000035160008CF1700089D
:10004000A3010008A3010008A3010008A301000800
:10005000A3010008A3010008A3010008A3010008F0
:10006000A3010008A3010008A3010008A3010008E0
:10007000A3010008A3010008A3010008A3010008D0
:10008000A3010008A3010008A3010008A3010008C0
:10009000A3010008A3010008A3010008A3010008B0
:1000A000A3010008A3010008A3010008A3010008A0
:1000B000A3010008A3010008A3010008A301000890
:1000C000A3010008A3010008A3010008A301000880
:1000D000A3010008A3010008A3010008A301000870
:1000E000A3010008A3010008A301000800F002F822
:1000F00000F03AF80AA090E8000C82448344AAF188
:100100000107DA4501D100F02FF8AFF2090EBAE885
:100110000F0013F0010F18BFFB1A43F0010318473B
:100120001423000034230000103A24BF78C878C19B
:10013000FAD8520724BF30C830C144BF04680C60ED
:10014000704700000023002400250026103A28BF35
:1001500078C1FBD8520728BF30C148BF0B60704739
:100160001FB51FBD10B510BD00F058F81146FFF7C0
:10017000F7FF01F0FDFB00F076F803B4FFF7F2FFA4
:1001800003BC00F07DF8000009488047094800479B
:10019000FEE7FEE7FEE7FEE7FEE7FEE7FEE7FEE737
:1001A000FEE7FEE704480549054A064B7047000094
:1001B00031180008ED000008F8000020F8060020C3
:1001C000F8020020F80200204FF0000200B51346AC
:1001D00094469646203922BFA0E80C50A0E80C5067
:1001E000B1F12001BFF4F7AF090728BFA0E80C5018
:1001F00048BF0CC05DF804EB890028BF40F8042B11
:1002000008BF704748BF20F8022B11F0804F18BF7D
:1002100000F8012B7047704770477047754600F033
:100220002BF8AE4605006946534620F00700854688
:1002300018B020B5FFF7B6FFBDE820404FF000062C
:100240004FF000074FF000084FF0000B21F00701BE
:10025000AC46ACE8C009ACE8C009ACE8C009ACE801
:10026000C0098D46704710B50446AFF300802046A4
:10027000BDE81040FFF781BF0048704794000020A0
:1002800001491820ABBEFEE7260002007047FEE7DA
:1002900010B50C2816D2132914D2CC08C1F3C70309
:1002A000A1EBC4048021E140074C00EB4000204456
:1002B0001AB1C25C0A43C25404E0C25CC1F1FF013E
:1002C0001140C154002010BD5400002070B5104CE6
:1002D00005460678D4E9070101F068F92878E17A43
:1002E000884201D2401C00E00020C0B2287001F01A
:1002F0005DFD607B00F08CF820B9A07B00F0B0F8C9
:10030000002804D030462E7001F050FD012070BD51
:10031000000000202DE9F041334C80460227607B2D
:10032000012618B9A07930B1401EA07100F088FFF5
:100330000025F0B123E000F083FF48B1E07808B178
:10034000142801D1E662A771142801D2401CE07084
:1003500000F060FF0028E9D0E07808B1142803D14C
:100360004FF0FF31E162A7711428DFD2401CE0702A
:10037000DCE700F04FFF10B9E57001F04FF900F035
:1003800031FF18B1607BA17B084303D0207A01289C
:1003900002D005E0257203E04046FFF797FF277281
:1003A000A07B40B9E079401E10F0FF00E07102D15F
:1003B00026636078E071607908B1401E00E06078E3
:1003C000607100F01BFF60B1607B08B9E562E67008
:1003D00001F024F92079002801D126636571BDE878
:1003E000F0812571FBE700000000002005280CD2F9
:1003F000DFE800F00B030507090002207047052025
:100400007047082070470C2070470020704700009C
:100410002DE9F041104F114E804600255FF0000499
:1004200004EB84003844405D01280BD1B06A2918E0
:10043000706A221802EB080000F08AF910B101205E
:10044000BDE8F081641CE4B2052CE9D36D1CEDB26B
:10045000052DE3D30020F3E7780000200000002002
:100460002DE9F041104F114E804600255FF0000449
:1004700004EB84003844405D01280AD1B06A291891
:10048000706A4144204400F063F910B10120BDE8D6
:10049000F081641CE4B2052CEAD36D1CEDB2052D8D
:1004A000E4D30020F3E700007800002000000020E3
:1004B000F0B507461224385D012803D004B1641E4C
:1004C000E4B2F8E70CB1601E00E00020C5B2785D30
:1004D000012806D0002645B12946304600F038F9FB
:1004E00004E005B16D1EEDB2F1E7002002462146A1
:1004F0003046FFF7CDFE761CF6B20C2EEBD304B1DE
:10050000641EE4B205B16D1EEDB2002CDFD1F0BD6A
:100510000C486FF0180382696420B2FBF0F0C1B29E
:1005200008480F308170594302EB81020A21B2FB67
:10053000F1F14170494201EB810102EB410101708F
:1005400070470000000000202DE9F04786B04FF012
:10055000000814216846FFF737FE00252C464FF0AF
:10056000010AE946012700262146304600F0F0F84E
:1005700000B90027761CF6B20C2EF5D31FB109F88E
:1005800004A04FF00108641CE4B2132CEAD3B8F1C4
:10059000010F05D1684600F0A7F86846FFF788FF0D
:1005A000002049460A5C012A01D16D1CEDB2401CB5
:1005B000C0B21328F6D3064A9069284490612846B1
:1005C000FFF714FF51690844506106B0BDE8F08799
:1005D000000000207047002806D041F66302114653
:1005E000491EFDD1401EFAD1704700002DE9F34F9E
:1005F0000026DFF8608082B035460024DFF858B06E
:10060000DFF85890A24605EB450700BF04EB8401D4
:1006100001EB0800405D01280FD1CDE900ABD9F80E
:100620002010D9F81C0004EB44021044DDE9022339
:100630003944491F01F02CF90643641CE4B2052C2F
:10064000E4D36D1CEDB2052DD7D304B03046BDE820
:10065000F08F000078000020391E00080000002004
:100660002DE9F041174E4FF00008174F86F80C8027
:100670004546002404EB84003844405D012806D13F
:10068000B06A01224119706A2044FFF701FE641C20
:10069000E4B2052CEED36D1CEDB2052DE9D3B06AA2
:1006A0000928706901DA801C00E0401CC6F820802F
:1006B000C6F81C807061FFF747FFBDE8F041FFF707
:1006C00027BF0000000000207800002010B50024A3
:1006D0000121204600F03CF8012804D0641CE4B25B
:1006E0000C2CF5D3002010BD70B50546002429461A
:1006F000012000F07DFF522001F09BF829460020E8
:1007000000F076FF522001F094F8641CE4B2052C4E
:10071000EDD370BD70B5064600252946002000F0D7
:100720001AFF00F033FF002432462946204601F02C
:10073000FAF800F08BFC00F077FC641CE4B2802C2B
:10074000F2D300F05BFC6D1CEDB2082DE5D370BD5B
:10075000002901DA002070470C280FD212290DDC85
:10076000C1F3C703CA08A1EBC2018022CA400449F1
:1007700000EB40000844C05C1040ECD00120704702
:100780005400002018B50B4C1421A069B0FBF1F007
:100790002178C0B2814200D020702078152807D27D
:1007A000012100910B231422002101F053F9607004
:1007B00018BD00000000002070B5044600F008F9E4
:1007C0000546601C02D004480078044400F000F99B
:1007D000401BA042FAD370BD440000202DE9F84F21
:1007E000DFF8B8910024A9F1040B23460F2709F183
:1007F000040AABF1040EC9E00125A5402A40AA4233
:100800007DD1674ED1F804C0ACEB0608B44532D0B8
:1008100014DCBCF1030F3AD009DCBCF1000F2AD084
:10082000BCF1010F1CD0BCF1020F31D11DE0BCF1B5
:10083000110F17D0BCF1120F2AD119E0B8F5881F9B
:1008400019D006DCB8F5803F15D0B8F5801F1FD150
:1008500011E0B8F5001F0ED0B8F5041F18D10AE05A
:10086000CB6815E0CB681B1D12E0CB6808330FE0A6
:10087000CB680C330CE08B682BB1012B4FF00803D5
:1008800003D0456104E0042302E0056100E0002399
:10089000FF2A01D8064601E000F104064FEA84056C
:1008A00001D9A5F12005D6F8008007FA05FC28EA51
:1008B0000C0803FA05F548EA0508C6F800804D68FB
:1008C000ED0062D5374DAE6946F00106AE61AD6907
:1008D00024F0030605F001050095334D06EB050CE9
:1008E000DCF80850A607360F07FA06F825EA0805CF
:1008F000DFF8B880404503D14FF0000817E044E02E
:10090000DFF8AC80404502D14FF001080FE0DFF87E
:10091000A480404502D14FF0020808E0DFF898803B
:10092000404502D14FF0030801E04FF0040808FAF7
:1009300006F848EA0508CCF808804D68D9F8006048
:10094000ED024D4601D5164300E096432E604D68FA
:10095000DAF80060AD02554601D5164300E0964333
:100960002E604D68DBF80060AD035D4601D516438F
:1009700000E096432E604D68DEF80060ED0375469A
:1009800001D5164300E096432E60641C0D682A468C
:10099000E5407FF431AFBDE8F88F00000804014066
:1009A000000011100010024000000140000801404A
:1009B000000C014000100140001401408068084014
:1009C00000D0012070470AB1016170470904FBE7BC
:1009D0000148806870470000440000200248816898
:1009E000027811448160704744000020074810B528
:1009F000016841F010010160032000F067F80F204A
:100A000000F006F800F024F8002010BD002002409D
:100A100070B50D4D04464FF47A712878B1FBF0F0B3
:100A20000A490968B1FBF0F000F0AEFA48B9102CA1
:100A300007D200222146501E00F028F800206C60EA
:100A400070BD012070BD0000440000205000002057
:100A50000C4808B5816941F001018161816901F0AB
:100A600001010091C16941F08051C161C06900F08C
:100A7000805000900448416821F0E06141F000712D
:100A8000416008BD0010024000000140F0B40E4B70
:100A90001B680C46C3F30223C3F10705042D00D9DC
:100AA0000425191D072901D2002300E0DB1E0126C1
:100AB00006FA05F1491E214099409E40761E1640D7
:100AC0003143F0BC00F0D4BE0CED00E0064900F06C
:100AD000070208684FF6FF03184040EA0220034A65
:100AE00010430860704700000CED00E00000FA05BC
:100AF0002DE9F0470F46050061D0434E306800F005
:100B00000700B84209D2306820F00700384330604F
:100B1000306800F00700B84251D128683B4C81078B
:100B200012D5400703D5606840F4E0606060287823
:100B3000000703D5606840F4605060606068A96891
:100B400020F0F000084360602878C00728D068686B
:100B5000012810D02168022810D0890700292EDA38
:100B6000616821F0030101436160FFF731FF8046B6
:100B700041F288390DE021688903EFE78901EDE74B
:100B8000FFF726FFA0EB0801494502D90320BDE885
:100B9000F0876068696800F00C00B0EB810FEFD15E
:100BA000306800F00700B8420BD9306820F0070029
:100BB00038433060306800F00700B84201D00120AF
:100BC000E5E72878400705D56068E96820F4E0602B
:100BD000084360602878000706D56068296920F41A
:100BE000605040EAC100606000F018F86168084A8F
:100BF000C1F30311515CC84006490860064800680B
:100C0000FFF706FF0020C2E700200240001002406C
:100C10002424000850000020480000200E4A51689B
:100C20000E4801F00C03042B11D0082B0FD10C48F7
:100C3000C1F38343C903C05C0AD55168084AC1F3B4
:100C40004041921E515C054A5043B0FBF1F07047A1
:100C500004494843704700000010024000127A0027
:100C60001424000800093D002DE9F84F040070D05D
:100C70002078C04DC00749D06868C0F381000128C2
:100C800007D06868C0F38100022809D16868C003F2
:100C900006D52868800339D560680028E7D035E09C
:100CA0006068B0F5803F0BD010B1B0F5A02F11D027
:100CB000286820F480302860286820F4802002E032
:100CC000286840F480302860606890B1FFF780FEAB
:100CD00006460AE0286840F480202860F0E700BF5C
:100CE000FFF776FE801B642873D828688003F7D549
:100CF0000CE0FFF76DFE064605E000BFFFF768FE5B
:100D0000801B6428F0D828688003F7D420789A4E96
:100D100080074FF001094FF0000839D5686810F0DE
:100D20000C0F07D06868C0F38100022809D16868F9
:100D3000C00306D42868800714D52069012808D18B
:100D400010E02069B0B1C6F80090FFF741FE0746F9
:100D500005E00AE1FFF73CFEC01B0228C4D8286862
:100D60008007F7D52868616920F0F80040EAC100E3
:100D700028600DE0C6F80080FFF72AFE074604E071
:100D8000FFF726FEC01B022823D828688007F7D467
:100D9000207800072CD57948A169D9B1C0F8009016
:100DA000FFF716FE074604E0FFF712FEC01B0228FD
:100DB0000FD8686A8007F7D571484FF4FA51006878
:100DC000B0FBF1F0009000BF0098411E0091FAD2F4
:100DD0000EE080E0C0F80080FFF7FAFD074604E06F
:100DE000FFF7F6FDC01B022875D8686A8007F7D4A4
:100DF0002078400760D5E8690027C00008D4E8697A
:100E000040F08050E861E869012700F080500090D0
:100E10005C480168C90513D40168834641F48071B8
:100E20000160FFF7D5FD824606E000BFFFF7D0FD69
:100E3000A0EB0A0064284ED8DBF80000C005F5D509
:100E4000E06801280AD008B1052813D0286A20F0EC
:100E500001002862286A20F0040002E0286A40F0BD
:100E600001002862E06841F2883B98B1FFF7B0FDCD
:100E700082460BE0286A40F004002862EEE700BFDB
:100E8000FFF7A6FDA0EB0A0159455AD8286A80074A
:100E9000F6D50CE0FFF79CFD824605E0FFF798FDD4
:100EA000A0EB0A0159454CD8286A8007F6D41FB137
:100EB000E86920F08050E861E06988B36968C1F3AF
:100EC0008101022944D00228C6F8608004D0FFF7CF
:100ED0007FFD044638E034E0FFF77AFD074604E082
:100EE000FFF776FDC01B02282BD828688001F7D4B5
:100EF000206AB0F5803F05D16868A16820F4003011
:100F000008436860D4E908010843696821F4741152
:100F100008436860C6F86090FFF75AFD044606E093
:100F200025E000BFFFF754FD001B022809D8286800
:100F30008001F7D51BE000BFFFF74AFD001B022828
:100F400002D90320BDE8F88F28688001F4D40EE0B0
:100F50000128F7D06868226A00F48031914204D1F8
:100F6000616A00F47010884201D00120EAE7002095
:100F7000E8E70000001002400000424280044242C4
:100F8000500000200070004010B5401EB0F1807F7E
:100F900001D3012010BD4FF0E02460610F216017E4
:100FA00000F066FC0020A06107202061002010BD39
:100FB0000249084410F82E0C704700003E1E00083D
:100FC000FEE7000070B501220B4D140321462846B0
:100FD000FFF7F9FC0122560331462846FFF7F3FCE0
:100FE000002231462846FFF7EEFC21462846BDE8A0
:100FF00070400022FFF7E7BC000C014070B5094CBF
:10100000012211032046FFF7DEFC65140022294669
:101010002046FFF7D8FC29462046BDE87040012253
:10102000FFF7D1BC000C014070B50122064D14033E
:1010300021462846FFF7C7FC21462846BDE87040F8
:101040000022FFF7C0BC0000000C01402DE9F04178
:10105000144F04464FF48056002231463846FFF7BD
:10106000B2FC00254FF4005804F08000802816D010
:10107000002241463846FFF7A6FC6006040E012216
:1010800031463846FFF79FFC002231463846FFF7CD
:101090009AFC6D1CEDB2082DE6D3BDE8F08101226B
:1010A000E7E70000000C014010B50446FFF78AFF97
:1010B0007820FFF7CBFFFFF7B7FF0020FFF7C6FF51
:1010C000FFF7B2FF2046FFF7C1FFFFF7ADFFBDE816
:1010D0001040FFF793BF10B50446FFF773FF782069
:1010E000FFF7B4FFFFF7A0FF4020FFF7AFFFFFF7C8
:1010F0009BFF2046FFF7AAFFFFF796FFBDE81040D1
:10110000FFF77CBF10B500221A4B10465FF00001BC
:1011100001EB41041C44491CC9B2A0540C29F7D36B
:10112000521CD2B2032AF1D3124B002224330021E5
:1011300001EB81041C44491CC9B2A0540529F7D312
:10114000521CD2B2052AF2D30B490122C870087191
:1011500048718871CA71C8610862087248728872E1
:10116000C87208734862886248738873C8620863EB
:1011700010BD0000540000200000002038B5002001
:101180008DF8000000F0DCFAFFF7C2F96846FFF7BF
:10119000C1FA0D4C00F042FA607200F017F810B17D
:1011A00000F0F4FD38BD2120FFF706FB9DF800009C
:1011B000072801D2401C00E000208DF8000068469E
:1011C000FFF7A8FAE6E700000000002010B50821AC
:1011D0000348FFF7F3FB08B1002010BD012010BD4C
:1011E0000008014010B508210348FFF7E7FB00287D
:1011F00000D0012010BD00000008014010B50421FE
:101200000348FFF7DBFB08B1002010BD012010BD33
:101210000008014010B5094C01212046FFF7CEFB24
:1012200038B90520FFF7C8FA01212046FFF7C6FBB1
:1012300008B1002010BD012010BD000000080140D1
:1012400010B5094C02212046FFF7B8FB38B905203C
:10125000FFF7B2FA02212046FFF7B0FB08B10020E9
:1012600010BD012010BD0000000801402DE9F04133
:1012700086B0002526480095019502950395816961
:1012800041F020018161816901F0200104918169AF
:1012900041F004018161816901F0040104918169D7
:1012A00041F0080181618069DFF8688000F0080082
:1012B0004FF440560490002231464046FFF783FB2E
:1012C000802001248DE831000220134F03906946ED
:1012D0003846FFF783FA0720CDE9000569460294F6
:1012E0003846FFF77BFA0820CDE9000569460294ED
:1012F0003846FFF773FA0320CDE90240CDE90064D8
:1013000069464046FFF76AFA06B0BDE8F081000082
:1013100000100240000C014000080140FEE7000000
:1013200070B5234CD4E9070100F040F9607B00253B
:1013300028B9E06AFFF76CF808B1E56205E0E06AF9
:10134000012802D1E069401CE061E06A401C02D142
:10135000E069401EE061D4E9070100F027F9607BF5
:1013600000B9E562206BFFF77BF840B12563E570BB
:10137000257206202073522000F05BFA00E02573EE
:10138000607958B9206B411C02D0012803D005E0D8
:10139000206A401E01E0206A401C2062D4E9070157
:1013A00000F004F9A07B002800D1256370BD000087
:1013B000000000202DE9F34F82B000250298592843
:1013C000284639D980461E4800263746817A0629A4
:1013D0000AD2DFE801F003060809030801263746B0
:1013E00002E0FF2700E001268246002407EB4500CB
:1013F000A34600F1160900BF9AF80A0000EB80002E
:101400004119204600F0B8F901280CD10D48DDE95A
:101410000223CDE900B006EB440049465C3000F001
:1014200037FA40EA0808641CE4B2052CE4D36D1CCA
:10143000EDB2052DD9D3404604B0BDE8F08F0000D1
:1014400000000020301E0008FEE770B506460024AC
:10145000002104F1B00000F093F80021084600F0EC
:101460008FF80021102000F08BF800250121304674
:1014700000F086F86D1CEDB2802DF7D3641CE4B249
:10148000082CE5D370BD10B51420FFF7A4F8002197
:10149000AE2000F075F80021D52000F071F8002191
:1014A000802000F06DF80021A82000F069F80021EC
:1014B0003F2000F065F80021D32000F061F8002102
:1014C000084600F05DF80021402000F059F80021A6
:1014D000A12000F055F80021C82000F051F80021AB
:1014E000DA2000F04DF80021122000F049F8002128
:1014F000812000F045F80021CF2000F041F80021C4
:10150000D92000F03DF80021F12000F039F8002149
:10151000DB2000F035F80021302000F031F8002108
:10152000A42000F02DF80021A62000F029F80021C9
:101530008D2000F025F80021142000F021F8002172
:10154000AF2000F01DF81420FFF745F8BDE810406B
:101550000020FFF77ABF10B50A460446002102F1C9
:10156000B00000F00DF8102040EA1410002100F047
:1015700007F804F00F00BDE810400021AFF3008031
:10158000C0B209B1FFF7A7BDFFF78EBD10B5FFF7D9
:1015900019FD7820FFF75AFDFFF746FD4020FFF7C1
:1015A00055FDBDE81040FFF73FBD000030B50323F7
:1015B000253890FBF3F40D4AE41E0025546290FB9D
:1015C000F3F403FB14000124091D08B1547300E077
:1015D000557391FBF3F0C01E9062C01C00EB4000FD
:1015E000884201D0947330BD957330BD0000002057
:1015F000F0B50E4607460024305D012809D10025CC
:101600003A4621462846FEF743FE6D1CEDB20C2DEE
:10161000F6D3641CE4B2132CEED3F0BD04498878F1
:10162000062801D2401C00E00020C0B2887070473C
:10163000000000207047000000EBC1100149085C69
:101640007047000012200008FCB5074610780E46CF
:10165000032816D90C480025CDE900500B463A4620
:101660001C21312000F014F904460748334620308D
:10167000CDE900503A462421312000F009F92043F9
:10168000FCBD0020FCBD0000B21E00082DE9FE4F8D
:10169000834629488846002510F81840ABF12E06ED
:1016A000A946DFF898A000EB480736E0242E09D2BF
:1016B0005846FFF77DFC21460290FFF749F80128C4
:1016C0001BD028E041465846FFF7B6FF0446414686
:1016D0005846FFF76FFE04434146584600F008FAAB
:1016E00004434146584600F037FA04434146584601
:1016F00000F0CCF92043BDE8FE8F0298CDE9009AB6
:1017000004EB440100EB400043465A462E30491D8D
:1017100000F0BEF80543641CE4B27878A042C5D856
:1017200041465846FFF788FF40EA050441465846BF
:10173000FEF75CFFDEE7000034000020341E0008E6
:101740000248002101708161416170470000002062
:1017500010B50446FFF762FF014605488172407AE2
:1017600000F016F800202070BDE8104000F01EBB0D
:1017700000000020704700008022C2400348405C07
:10178000024201D00120704700207047651E00080A
:10179000094910B500220323487207280AD2DFE85E
:1017A00000F007090404040707000120C87210BDF7
:1017B000CB7210BDCA7210BD0000002012B1814072
:1017C000C8B27047C0F1080021FA00F07047FFF777
:1017D00005B930B58FB028216846FEF7F5FC142115
:1017E0000AA8FEF7F1FC01210804CDE9001000244D
:1017F000029402250491CDE907504FF4E0100990BE
:101800006846FFF731FA08B172B6FEE70F20CDE95E
:101810000A054FF48060CDE90C4002210AA80E941D
:10182000FFF766F9002801D072B6FEE70FB030BDB1
:10183000704770B50646002529460020FFF78BFE4D
:10184000FFF7A4FE002409E029462046FFF71EFF0B
:10185000FFF7FCFBFFF7E8FB641CE4B2B442F3D3F0
:10186000FFF7CCFB6D1CEDB2082DE5D370BDFEE794
:101870000907090E002804DB00F1E02080F80014BD
:10188000704700F00F0000F1E02080F8141D704751
:101890002DE9F0478A46DDE90856317896F801C00F
:1018A00000EB01080CFB01F4641CE4B2671E7D43ED
:1018B000CAF3C407A8F10108B946904506DB824285
:1018C00004DB9F4202D8BC449C4502D20020BDE804
:1018D000F087A3EB0903DBB2101A801CAAEBC9073F
:1018E00003FB010207F0FF095F1E07FB0100D2B2F4
:1018F00000F0FF08A24201D9002706E0501901229A
:10190000315C4846FFF75AFF074653B108EB050024
:101910000022315C4846FFF751FFA04501D838430B
:10192000D5E73846D3E770B50D460646FFF784FE87
:1019300004462946304600F097F8044329463046CD
:10194000FFF782FE04432946304600F005F90443C0
:101950002946304600F0CCF804432946304600F0D2
:10196000FBF804432946304600F090F8204370BD50
:1019700008B5FFF73BF8FFF72CFFFFF777FCFFF701
:1019800082FDFFF7DDFE314F314C4FF000094FF47F
:101990007A784FF0050A37264FF0010B8DF800904A
:1019A0000025FFF7AFFBFEF7EDFED4E90701FFF7D7
:1019B000FDFDFFF7E3FB6846FFF7CAFE8020FFF757
:1019C00038FF4046FEF7F8FEC4E9076A012280218D
:1019D0003846FEF7F8FF6846FEF79CFC207B062899
:1019E0001ED1FEF73DFEFEF771FE38B18020FFF7F5
:1019F00020FF4FF4FA60FEF7DFFECFE70220C4E9D4
:101A00000760A07A60726846FFF7A2FE84F804B00F
:101A10008020FFF70EFFFEF7B5FE8020FFF709FFDD
:101A2000FFF7D4FB28B1207A18B9FFF7F7FD84F847
:101A300008B0FFF775FC062D02D06D1CEDB2C5E7AE
:101A40005220FFF7F6FE0025C0E700000008014025
:101A50000000002010B5401A029CE41A6043511A9D
:101A600090FBF1F0184410BD2E2801D3512801D964
:101A70000020704701EBC10100EB810002490844DE
:101A800010F82E0C70470000F21E00082DE9FC43F0
:101A90000D4604466D2803D3762C01D8052D02D0BF
:101AA0000020BDE8FC83104F4FF00A08DFF83C909F
:101AB00039782B46B1FBF8F0CDE9000922462921FF
:101AC0006D20FFF7E5FE39780646B1FBF8F208FB1A
:101AD0001210CDE900092B46224629217220FFF77A
:101AE000D7FE3043DDE7000000000020881E00081C
:101AF0002DE9FC4188460446102804D31C2C02D84A
:101B0000B8F1010F02D90020BDE8FC81114E104D43
:101B10004346B078CDE90005224608211020FFF7A2
:101B2000B7FE07467078CDE90005434622460821F6
:101B30001420FFF7ADFE07433078CDE9000543469A
:101B4000224608211820FFF7A3FE3843DCE70000F7
:101B5000881E00080F0000202DE9FC4F8B468146AF
:101B60005F2805D3B9F1770F02D8BBF1010F02D975
:101B70000020BDE8FC8FDFF80C8242F21074824E28
:101B8000D8F814005B46B0FBF4F0C0B2CDE9000613
:101B90004A4608215F20FFF77BFE0746D8F814006D
:101BA0006FF41C72B0FBF4F1514300EB01104FF4E1
:101BB0007A75B0FBF5F0C0B2CDE900065B464A4647
:101BC00008216320FFF764FE0743D8F814006FF480
:101BD0001C72B0FBF4F1514300EB0111B1FBF5F1C4
:101BE0006FF07C02514300EBC101B0FBF4F06FF4E5
:101BF0001C72504301EB00114FF0640AB1FBFAF084
:101C0000C0B2CDE900065B464A4608216720FFF7CF
:101C10003FFE0743D8F814006FF41C72B0FBF4F1D8
:101C2000514300EB0111B1FBF5F16FF07C02514320
:101C300000EBC102B0FBF4F16FF41C73594302EBEB
:101C40000112B2FBFAF16FF01802514300EB81026E
:101C5000B0FBF4F1594300EB0111B1FBF5F1B0FB1E
:101C6000F4F06FF07C03594302EBC1016FF41C7276
:101C7000504301EB00110A20B1FBF0F0C0B2CDE9F6
:101C800000065B464A4608216B20FFF701FE07432A
:101C9000D8F814006FF41C72B0FBF4F1514300EB60
:101CA0000111B1FBF5F16FF07C02514300EBC10271
:101CB000B0FBF4F16FF41C73594302EB0112B2FB59
:101CC000FAF16FF01802514300EB8102B0FBF4F11E
:101CD000594300EB0111B1FBF5F16FF07C0359435F
:101CE00002EBC102B0FBF4F16FF41C73594302EB39
:101CF00001120A21B2FBF1F1B0FBF4F25A4300EBFE
:101D00000212B2FBF5F26FF07C035A4300EBC20300
:101D1000B0FBF4F26FF41C7C02FB0CF203EB021339
:101D2000B3FBFAF24942272301EB81015A4300EB4E
:101D3000410101EB8202B0FBF4F101FB0CF100EB7D
:101D40000111B1FBF5F1B0FBF4F00323594302EBB1
:101D5000C1010F22504301EB0010C0B2CDE90006D3
:101D60005B464A4608216F20FFF792FD074300209B
:101D7000CDE900065B464A4608217320FFF788FD3F
:101D80003843F6E600000020881E00080020064ABE
:101D900001461154401CC0B20328FAD302480F3840
:101DA00001704161816170470F0000202DE9F0430F
:101DB00000261D4FDFF874808146354634460023E7
:101DC0005FEA090007D0012808D002280BD0B9F13A
:101DD000030F12D10DE01E4625460EE0C4F10400AB
:101DE000C6B21D4609E0C3F10400C6B2C4F1040046
:101DF00002E02646C3F10400C5B2787A00EB800009
:101E000001191846FFF7B8FC014606EB860040446E
:101E10005B1CDBB24155052BD2D3641CE4B2052C0C
:101E2000CDD3BDE8F0830000000000207800002042
:101E30000201C0C003010705070301E0E0E0000064
:101E40000001010102020203030304040405050565
:101E50000606060707070808080909090A0A0A0BFF
:101E60000B0B0C0C0C002070000000003030000048
:101E700000306000001030200020202020000020D2
:101E8000206000002020300004011F111F00001FEF
:101E900000001D15170011151F0007041F0017155E
:101EA0001D001F151D00011D03001F151F00171524
:101EB0001F001E01FE0101010101010101010101DB
:101EC0000101010101010101010101010101010102
:101ED00001FE1E01030404040404040404040404B5
:101EE00004040404040404040404040404040404B2
:101EF0000403D5F8F4EA547A5568747A546A55782C
:101F0000746A547A5568747A546A5578746A547A43
:101F10005568F4FAD4EAFF0100020282FE8202024E
:101F200088FA8000F8100808F0001860C03888A00F
:101F3000A8A828282808080801FFFF0004040414A2
:101F4000141454545050440404FC040404F02212A9
:101F50000110F400002050509000000000FFFF002E
:101F6000000000804040004040C0404001814140AE
:101F7000800100C0404181014041C141400000005A
:101F800000FFFF000000000112120C00001F000003
:101F9000001F02021F00001F060A110000001F00A0
:101FA0000000000000FFFF000000F0B0508888C86B
:101FB000505020206060B0901018089898A4E44613
:101FC000E4E4E8F8F0F0000000FFFF000000030682
:101FD0000D1A3F6BD6AA54F8FCFCFEFEAB7F7F3F88
:101FE0003F1F0F0D070703030101000000FF1F3C07
:101FF00038383030303030303031333733313130C1
:1020000030303030303030303030303030303838C0
:102010003C1FFC02F9F51D0D0D0D0D0B071F3F2098
:102020002F2F3F223F203933203F202A2E3F2D2AB9
:102030002A361F070B0D0D0D0D1DF5F902FCF800DA
:1020400040004040004040004040004040004040D0
:102050000040400040400040400040400040400000
:102060004040004000F8FC02F9F51D0D0D0B071F64
:102070003F2D2A2A363F312E2E3F312E2E313F2042
:102080003A322D3F202A2E3F1F070B0D0D1DF5F96B
:1020900002FCFF007FBFE0C0C0C0C0C0C0C0C0C065
:1020A000C0C0C0C0C0C0C0C0C0C0C0C0C0C0C0C030
:1020B000C0C0C0C0C0C0C0C0C0E0BF7F00FFFF0044
:1020C0000000000000000000000000000000000010
:1020D0000000000000000000000000000000000000
:1020E0000000000000FFFF007FBFE0C0C0C0C0C014
:1020F000C0C0C0C0C0C0C0C0C0C0C0C0C0C0C0C0E0
:10210000C0C0C0C0C0C0C0C0C0C0C0C0C0E0BF7FF1
:1021100000FF0001FA5A7A5ADA5A7A5ADA5A7A5A87
:10212000DADA7A5ADA5A7A5ADA5A7A5ADA5A7A5A0F
:10213000DA5A7A5ADA5A7A5ADA5A7AFA0100FF00E7
:10214000000000000000000000000000000000008F
:10215000000000000000000000000000000000007F
:102160000000000000FF0001FAFA5A5A5A7A5A5A3F
:102170005A7A5A5A5A7A5A5A5A7A5A5A5A7ADADA3F
:102180005A7A5ADA5A7A5ADA5A7A5ADA5A7A5AFA0F
:1021900001000000FF557755DD557755DDF5FF3F10
:1021A00007E0FCBCE081071D7DD57755DD557755EF
:1021B000DD557755DD557755DD5577FF0000FF007C
:1021C000000000000000000000000000000000000F
:1021D00000000000000000000000000000000000FF
:1021E0000000000000FF0000FF00FEFD07030303E6
:1021F000030303030303030303030307FDFE0001BB
:10220000FFF7D5DDD5F7D5DDD5F7D5DDD57755FF8A
:1022100000000000FF557755DDF57F3F8FC3F0DCF0
:10222000BFF7EFFDEAD7BCF04081071D753F87F18E
:1022300081030F35DD557755DD5577FF0000FF0031
:10224000000000000000000000000000000000008E
:10225000000000000000000000000000000000007E
:102260000000000000FF0000FF00FFFF0000000072
:10227000000000000000000000FC7EC25E7E4252B2
:102280005A7E625E627E42525A7EC25EFC0103FF4B
:1022900000000000FF557755DF577CF8E1042AEE77
:1022A000DA4E0A0A0E1AAE0A0501C060786F5F7E28
:1022B000756F5860C0030F75DD5577FF0000FF0094
:1022C000000000000000000000000000000000000E
:1022D00000000000000000000000000000000000FE
:1022E0000000000000FF0000FF7873E5676666E607
:1022F00066666EFEFE0E06C600FFFF800000000050
:102300000000000000000000000080FFFF0000FF50
:10231000000000000F1517951D15971F9F0009BF9E
:102320003A9520009100AA0000800285372D95077C
:10233000850D37850280181C9F15170F0000FF00C0
:10234000000000000000000000000000000000008D
:10235000000000000000000000000000000000007D
:102360000000000000FF00000F17159D1517951DB8
:102370009517157F3F80001D94199A13139313939B
:1023800013177F3F87031393139313129110180FA2
:10239000000000000000060F0D1F1D161F1D1F1D51
:1023A000363F3D7F7D76FFFDFFFD767F7D3F3D36ED
:1023B0001F1D1F1D161F1D0F0D0600000000FF80B2
:1023C000808080808080808080808080808080800D
:1023D00080808080808080808080808080808080FD
:1023E0008080808080FF00000000060F0D1F1D16FA
:1023F0001F1D1F1D363F3D7F7D76FFFDFFFD767F54
:102400007D3F3D361F1D1F1D161F1D0F0D060000B1
:102410000000010202030405060708090A0B0C0D5F
:102420000E0F101000000000000000000102030465
:10243000060708095424000800000020540000008A
:1024400028010008A824000854000020A406000069
:10245000440100080000000000000000000000002F
:10246000000000000000000000000000000000006C
:10247000000000000000000000000000000000005C
:10248000000000000000000000020004030706092D
:10249000090C0B0F0E1111130100000010000000B9
:0824A000000000000024F4001C
:04000005080000ED02
:00000001FF
